:020000040000FA
:0300000002009F5C
:10004B0002036400000080FBE4900F007807790145
:10005B008002F0A3D8FCD9FA7A067B0F9000CF78F8
:10006B000979018015E493A3AD82AE838A828B83D9
:10007B00F0A3AA82AB838D828E83D8E9D9E77582F0
:10008B001875830474001200B175824E7583007469
:10009B00001200B175D0007581BF75140075150F76
:1000AB00759F00020053C09FF59FE473D09F22D031
:1000BB0083D082C09FE493C0E0740193C0E07402CC
:1000CB0093F59F2201000000020000001200BA52BB
:1000DB0004001200BA4304001200BACB0300C3E0C1
:1000EB009608A3E09608A3E09608A3E09622E026E4
:1000FB00F008A3E036F008A3E036F008A3E036F0F2
:10010B0022E0F608A3E0F608A3E0F608A3E0F62247
:10011B00C3E498F8E499F912015C8026C3E49AFAD7
:10012B00E49BFBE920E7E912015CE498F8E499F918
:10013B0022C3E498F8E499F912015CE498F8E49985
:10014B00F9C3E49AFAE49BFB22EB20E7CFE920E723
:10015B00E0B90010BB0008E88AF084F8AAF022E4AA
:10016B00FBC8FA22EB70227B10C833C8C933C933E2
:10017B005007C39AC3DBF280069A50012ADBEAC808
:10018B0033F4C8C933F4C9FA2275F008E4C833C88C
:10019B00C933C933C99AC99B5004C92AC93BD5F085
:1001AB00ECFBC833F4C8E4C9FA222514C582C0E0BD
:1001BB00E51534FFC583C0E0E514C3958224F81020
:1001CB00AF08858315858214800885831585821475
:1001DB00D2AFCEF0A3E520F0A37808E608F0A3DEBB
:1001EB00FAEFF0A3E58124FAF8E608F0A3E608F0AD
:1001FB00A3E608F0A30808E608F0A3E608F0A315A9
:10020B00811581D0E0FED0E0F8158115811581E8CC
:10021B00C0E0EEC0E022851583851482E0A3FEE0EA
:10022B00A3F5207808E0A3F608DFFAE0A3FFE0A32C
:10023B00C0E0E0A3C0E0E0A3C0E0E0A3C0E0E0A327
:10024B00C0E010AF08858214858315800885821461
:10025B00858315D2AFD083D0820200B7C0D02514CE
:10026B00C582C0E0E51534FFC583C0E0E514C39536
:10027B008224F310AF08858315858214800885834B
:10028B0015858214D2AFC8F0A3E9F0A3EAF0A3EB73
:10029B00F0A37908E709F0A3D8FAECF0A3EDF0A3EB
:1002AB00EEF0A3EFF0A3D0E0F0A3D0E0F0A3D0E00A
:1002BB00F0A3E520F0A3E5F0F0A3228515838514C8
:1002CB0082E0C0E0A3E0F9A3E0FAA3E0FBA3780887
:1002DB00E0F608A3DFFAE0FCA3E0FDA3E0FEA3E059
:1002EB00FFA3E0C0E0A3E0C0E0A3E0F5D0A3E0F5FE
:1002FB0020A3E0A3F5F010AF088583158582148049
:10030B0008858315858214D2AFD082D083D0E0F8D4
:10031B00D0E032D083D082E9C0E0E493A3C386F06F
:10032B00C5F095F0F908E493A386F0C5F095F0704D
:10033B000BE493A3C3994005E9048002A3E475F091
:10034B0002A42582F582E5F03583F583D0E0F9E44C
:10035B0093A3C0E0E493C0E022C0E074EF12026705
:10036B00900F06780812010C900F0078081200F914
:10037B00900F0A780812010C900F0078081200E910
:10038B0040397C007D007E007F00900F00ECF0A3D5
:10039B00EDF0A3EEF0A3EFF0900F04E02401F0A337
:1003AB00E03400F0900F04C3E09407A3E094004006
:1003BB000A900F047400F0A37400F07F040202C6CD
:1003CB0074F61201B5EAFCEBFDECF8EDF97A027B61
:1003DB00001201548A088B09E50845097008C29080
:1003EB00C291C29480228C088D09780812031E01D9
:1003FB0000041304090413040D0413041104D29014
:10040B008006D2918002D2947F020202217E007F6D
:10041B00001200DD1200D7900F04E06E7003A3E012
:10042B006F60F4900F04E0FAA3E0FB1200E3900F6F
:10043B0004E0FEA3E0FF80DF53F4EC43FE13C29015
:10044B00C291C2940200B753E4F043E405D2B9D28F
:04045B00AF0200B735
:040000050000009F58
:00000001FF
