:020000040000FA
:030000000200AB50
:03001300020212D4
:10004B0002021100000080FB1200DBB9000302006A
:10005B0095E4900F00780379018002F0A3D8FCD9C6
:10006B00FA900F02AA82AB839000DE78247901808C
:10007B0015E493A3AC82AD838A828B83F0A3AA820F
:10008B00AB838C828D83D8E9D9E775829F75830208
:10009B0074001200BD75824E75830074001200BD92
:1000AB0075D0007581BF75100075110F759F00021B
:1000BB000053C09FF59FE473D09F22D083D082C0A2
:1000CB009FE493C0E0740193C0E0740293F59F2208
:1000DB007901224C656431204F6E004C65643220EF
:1000EB004F6E004C656433204F6E00416C6C204C9E
:1000FB006564204F6E001200C6C802001200C6F2E3
:10010B0002001200C63003001200C63D020025108B
:10011B00C582C0E0E51134FFC583C0E0E510C3958F
:10012B008224F810AF08858311858210800885839F
:10013B0011858210D2AFCEF0A3E520F0A37808E6AC
:10014B0008F0A3DEFAEFF0A3E58124FAF8E608F055
:10015B00A3E608F0A3E608F0A30808E608F0A3E678
:10016B0008F0A315811581D0E0FED0E0F8158115BC
:10017B00811581E8C0E0EEC0E022851183851082F5
:10018B00E0A3FEE0A3F5207808E0A3F608DFFAE091
:10019B00A3FFE0A3C0E0E0A3C0E0E0A3C0E0E0A3C6
:1001AB00C0E0E0A3C0E010AF08858210858311800A
:1001BB0008858210858311D2AFD083D0820200C311
:1001CB00D083D082E9C0E0E493A3C386F0C5F09559
:1001DB00F0F908E493A386F0C5F095F0700BE49367
:1001EB00A3C3994005E9048002A3E475F002A4259A
:1001FB0082F582E5F03583F583D0E0F9E493A3C073
:10020B00E0E493C0E02232C0E0C0D0E8C0E0E9C037
:10021B00E0C082C083E5C1F87900900F00F0A3E93C
:10022B00F0C28BD083D082D0E0F9D0E0F8D0D0D020
:10023B00E03274F6120119C290C291C2948A088BF3
:10024B000978081201CB01000289025C026B027A69
:10025B0002D2907C077D007A027B0F120107802F60
:10026B00D2917C077D007A0A7B0F1201078020D286
:10027B00947C077D007A127B0F1201078011D290BC
:10028B00D291D2947C0A7D007A1A7B0F1201077FE0
:10029B000202018512010D120101900F00E0F8A37B
:1002AB00E0F9E84960F4900F00E0FAA3E0FB1201DB
:1002BB0013900F007400F0A37400F080DD53C6BFE1
:1002CB00E59EA2E640FA53C6B875F10043F33C53E2
:1002DB00FF3F43868075C50975C23BC2E943864023
:1002EB00D2AAD2AF0200C374F712011978007900B9
:1002FB00801E8A828B83E0F5C18A828B83A3AA82BC
:10030B00AB83A2E950FCC2E9E82401F8E93400F917
:10031B00C3E89CE99D40DB75C10AA2E950FCC2E928
:10032B007F0102018553F4EC43FE13C290C291C2CC
:04033B00940200C365
:04000005000000AB4C
:00000001FF
