:020000040000FA
:1000000002001E00000080FB75823F7583027400B1
:10001000120030758203758300740012003075D0B1
:10002000007581BF75120075130F759F00020008DF
:10003000C09FF59FE473D09F22D083D082C09FE4FD
:1000400093C0E0740193C0E0740293F59F22120004
:10005000396D02001200397C0200120039F20100F1
:10006000C3E498F8E499F91200A18026C3E49AFA4F
:10007000E49BFBE920E7E91200A1E498F8E499F990
:1000800022C3E498F8E499F91200A1E498F8E499FD
:10009000F9C3E49AFAE49BFB22EB20E7CFE920E7DF
:1000A000E0B90010BB0008E88AF084F8AAF022E466
:1000B000FBC8FA22EB70227B10C833C8C933C9339E
:1000C0005007C39AC3DBF280069A50012ADBEAC8C4
:1000D00033F4C8C933F4C9FA2275F008E4C833C848
:1000E000C933C933C99AC99B5004C92AC93BD5F041
:1000F000ECFBC833F4C8E4C9FA222512C582C0E07B
:10010000E51334FFC583C0E0E512C3958224F810DF
:10011000AF08858313858212800885831385821238
:10012000D2AFCEF0A3E520F0A37808E608F0A3DE76
:10013000FAEFF0A3E58124FAF8E608F0A3E608F068
:10014000A3E608F0A30808E608F0A3E608F0A31564
:10015000811581D0E0FED0E0F8158115811581E888
:10016000C0E0EEC0E022851383851282E0A3FEE0AA
:10017000A3F5207808E0A3F608DFFAE0A3FFE0A3E8
:10018000C0E0E0A3C0E0E0A3C0E0E0A3C0E0E0A3E3
:10019000C0E010AF08858212858313800885821223
:1001A000858313D2AFD083D082020036D083D08231
:1001B000E9C0E0E493A3C386F0C5F095F0F908E444
:1001C00093A386F0C5F095F0700BE493A3C3994018
:1001D00005E9048002A3E475F002A42582F582E516
:1001E000F03583F583D0E0F9E493A3C0E0E493C055
:1001F000E02274F61200FAEAFCEBFDECF8EDF97A75
:10020000027B001200998A088B09E50845097008ED
:10021000C290C291C29480228C088D097808120184
:10022000AC0100043A0230023A0234023A023802C7
:10023000D2908006D2918002D2947F020201667E23
:10024000007F0012004EEEFAEFFB12005A7A0A7B92
:10025000001200540EEE70010FC3EE9407EF9400ED
:10026000A2D265D03340DF7E007F0080D953F4EC0A
:1002700043FE13C290C291C294020036EAF8EBF931
:10028000E824FFFAE934FFFBE849601478007900BC
:10029000C3E89410E9942750E308E870F30980F06C
:0302A00002003623
:040000050000001ED9
:00000001FF
